:400000000080002011000000650100006501000080B500AF024A034B1B68136000F0ACF8BC760040FA46004010B5054C237833B9044B13B10448AFF300800123237010BDA7
:400040008081FF1F0000000020110000084B10B51BB108480849AFF300800848036803B910BD074B002BFBD0BDE81040184700BF00000000201100008481FF1F0881FF1FEF
:400080000000000080B500AF00F0B2FB62B6094B1B680A2B06D9012000F0D2FF002000F0B1FF05E0002000F0CBFF012000F0AAFFEDE700BF9C81FF1F84B090B400AF07F1B4
:4000C000080484E80F00FB7CDBB21A46024B1A60BD4690BC04B070479C81FF1F84B080B500AF07F1080E8EE80F00012000F0A8FF4FF4FA7000F01AFF002000F0A1FFBD468D
:40010000BDE8804004B0704784B090B585B004AF07F1100484E80F003B6BB3F5407F03D0B3F5C06F0CD016E06C4607F120030FCB84E80F0007F110030FCBFFF7BDFF0AE0DB
:400140006C4607F120030FCB84E80F0007F110030FCBFFF7C3FF0437BD46BDE8904004B0704700BF80B500AF00F09AFF03461B680C2B00D1FEE7FEE780B586B000AF224B51
:400180007B61224B3B61204B7B6135E03B691B68FB603B695B68BB603B699B683B6000237B600CE0FB681A68BB681A60BB680433BB60FB680433FB607B6804337B607A680B
:4001C0003B689A42EED13B69DB683B6000237B6008E0BB6800221A60BB680433BB607B6804337B607A683B689A42F2D13B6910333B617B69013B7B617B69002BC6D100F0F7
:4002000055FFFFF73FFFFEE701000000DC12000080B582B000AF174B174A1A60174A174B1B6843F40073136000237B600FE07B68032B04D8124A7B6852F8233000E0114BBA
:4002400011497A6841F822307B6801337B607B682F2BECD90D4B1B78DAB20D4B1A700D4B094A1A6000F004F90B4B00221A600837BD4680BD0CED00E00004FA0514ED00E02A
:4002800000000000650100000080FF1FBC7600400481FF1F08ED00E00081FF1F80B582B000AF78603960786800213A6800F02FFF0837BD4680BD00BF80B584B000AFF860BB
:4002C000B9607A60F868B9687A6800F015FF1037BD4680BD80B483B000AF0346FB71FEE780B487B000AF7860396000233B6100237B6127E07B699B007A6813441B68BB60C7
:40030000BB68FB73BB6823F0FF03BB6014E03B695B003A6813441B781A46BB68134419463B695B003A6813445B780B703B6901333B61FB7B013BFB73FB7B002BE7D17B690A
:4003400001337B617B69022BD4D91C37BD465DF8047B704780B582B000AF294B02221A704FF0402308221A70264B03221A70264B264A1278D2B21A70254B08221A80254B03
:4003800041F251221A800023FB7019237B6014E0FB785B00DAB2204B1B78DBB203F00103DBB21343DBB203F00303FB704FF4F07000F066FE7B68013B7B607B68002B02D0E3
:4003C000FB78032BE4D17B68002B02D10320FFF781FF124B4FF480721A80104B07221A700F4B00221A700F4B48221A700B4B00221A700D4B02221A700837BD4680BD00BF59
:400400000043004000420040A1460040080100492242004020420040254200400440004006400040084000400140004080B483B000AF0B4B1B78FB710A4AFB7903F007030E
:40044000DBB21370084AFB791B09DBB21370074B44221A700C37BD465DF8047B704700BFCF0100496E5800406F5800407658004080B582B000AF72B6394A394B1B78DBB207
:4004800043F00403DBB213700023FB7113E0FA7913465B0013445B00324A13443B603B681A683B689B889BB210461946FFF7F6FEFB790133FB71FB79072BE8D94FF09040C8
:4004C0002949FFF70DFF294A284B1B78DBB243F00203DBB21370264A254B1B78DBB243F00203DBB21370234A224B1B78DBB243F04003DBB21370204A1F4B1B78DBB243F04B
:400500001003DBB213701D481D490822FFF7D4FE1C481D490822FFF7CFFE1C481C490822FFF7CAFE1B4A1B4B1B78DBB243F00803DBB21370184B61221A70FFF70BFF164B69
:4005400081221A70154B01221A70FFF76FFF144808490E22FFF7B0FE0837BD4680BD00BFE8460040241100000C0000480350014013500140A0430040C2430040C251004034
:4005800024000048125100402C0000482251004034000048224300400048004004000840B043004080B582B000AF0023FB710023BB7112E0BA7913465B0013449B00174ABD
:4005C0001344184600F07CFB0346002B02D00123FB7105E0BB790133BB71BB79072BE9D9FB79002B15D10023BB710FE0BB791B010B4A1344184600F0EDFA0346002B02D02E
:400600000123FB7105E0BB790133BB71BB790F2BECD9FB7918460837BD4680BD54110000B411000080B582B000AF4FF4F0537B600123FB700123BB7000F02AFD03467B7063
:400640003D4A3D4B1B78DBB243F00103DBB213703A4A3A4B1B78DBB243F00103DBB213707B78184600F018FD354A354B1B78DBB223F00103DBB2137002E07B68013B7B601C
:400680007B68002B06D02E4B1B78DBB203F00103002BF2D17B68002B49D02A4B4FF480321A601020284900F063FC1020072100F087FC022000F044F90346002B1CD1002042
:4006C00000F060F90346002B16D1092004210322002300F08DF90346002B0DD1002000F0F1F90346002B07D1002000F021FA0346002B01D10023BB70BB78002B17D1FFF7B7
:4007000051FF0346002B12D141F2012000F046FA0346002B0BD10A4B00221A70084B1B78DBB203F00103002B01D10023FB70FB7818460837BD4680BDA6430040B643004096
:4007400010A0004080E100E0ED0D000080B582B000AF4FF410737B600123FB7000F098FC0346BB701D4A1D4B1B78DBB243F00103DBB213701A4A1A4B1B78DBB243F00103BA
:40078000DBB21370BB78184600F086FC154B41F201221A6000F094F8134B4FF480321A60124A124B1B6843F00103136002E07B68013B7B607B68002B05D00C4B1B6803F03B
:4007C0000103002BF3D07B68002B01D00023FB70FB7818460837BD4680BD00BFA6430040B643004000A0004000E100E010A0004080B582B000AF0023FB710B4B1B78002BDF
:4008000003D1FFF70FFF0346FB71FB79002B06D1054B01221A70FFF799FF0346FB71FB7918460837BD4680BDA081FF1F80B582B000AF4FF4F0537B600123FB701C4A1C4B12
:400840001B6823F00103136002E07B68013B7B607B68002B05D0164B1B6803F00103002BF3D17B68002B1DD00023FB70114B4FF480321A6000F00CFC0346BB700E4A0E4B71
:400880001B78DBB223F00103DBB213700B4A0B4B1B78DBB223F00103DBB21370BB78184600F0FAFBFB7818460837BD4680BD00BF10A0004080E100E0A6430040B6430040E7
:4008C00080B483B000AF0123FB710C4A0B4B1B78DBB243F00103DBB21370084B1B78DBB203F00103002B01D00023FB71FB7918460C37BD465DF8047B704700BF04A0004004
:4009000080B483B000AF0123FB710C4A0B4B1B78DBB223F00103DBB21370084B1B78DBB203F00103002B01D10023FB71FB7918460C37BD465DF8047B704700BF04A00040E2
:4009400080B485B000AF0346FB800223FB73FB881BB2002B0CDB0123FB73094AFB881380074B1B889BB2FA889A4201D10023FB73FB7B18461437BD465DF8047B704700BF3C
:4009800016A0004080B485B000AF0346FB710123FB73FB79002B11D1144A144B5B78DBB223F01003DBB25370104B5B78DBB203F01003002B13D10023FB7310E00B4A0B4BD2
:4009C0005B78DBB243F01003DBB25370074B5B78DBB203F01003002B01D00023FB73FB7B18461437BD465DF8047B704714A0004090B484B000AF0446084611461A4623463C
:400A0000FB710346BB710B467B7113463B710223FB73FB79012B4CD9FB790F2B49D8BB79012B02D9BB79072B05D93B79002B40D1BB79012B3DD17B79032B3AD87A79FB79F4
:400A40009A4236D87A79BB799A4232D80123FB731B4B5B78BB73BB7B23F00F03BB73BA7BFB791343BB73164ABB7B5370144B5B78DBB2BA7B9A421CD10023BB733B79002B8A
:400A800001D00223BB73BB795B01DAB27B799B00DBB21343DAB2BB7B1343BB73084ABB7B1370074B1B78DBB2BA7B9A4201D10023FB73FB7B18461037BD4690BC704700BF6D
:400AC00014A0004080B485B000AF0346FB710123FB73FB79002B11D1144A144B1B78DBB223F01003DBB21370104B1B78DBB203F01003002B13D10023FB7310E00B4A0B4B53
:400B00001B78DBB243F01003DBB21370074B1B78DBB203F01003002B01D00023FB73FB7B18461437BD465DF8047B704714A0004080B485B000AF0346FB710123FB73FB79C6
:400B4000002B11D1144A144B1B78DBB223F00103DBB21370104B1B78DBB203F00103002B13D10023FB7310E00B4A0B4B1B78DBB243F00103DBB21370074B1B78DBB203F0EB
:400B80000103002B01D00023FB73FB7B18461437BD465DF8047B704714A0004080B485B000AF0346FB800123FB73094AFB881380074B1B889BB2FA889A4201D10023FB7329
:400BC000FB7B18461437BD465DF8047B704700BF04A0004080B485B000AF78600123FB737B681B785A01354B13441A467B685B6843F0801313607B681B785A012F4B13449A
:400C00001B6803F07F127B685B6823F080139A424DD17B681B785A01284B134410337A6892681A607B681B785A01244B134410331A687B689B689A4239D17B681B785A013A
:400C40001E4B134414337A68D2681A607B681B785A011A4B134414331A687B68DB689A4225D17B681B785A01144B134418334FF0FF321A607B681B785A01104B13441833FF
:400C80001B68B3F1FF3F12D17B681B785A010B4B13441C3300221A607B681B785A01074B13441C331B68002B01D10023FB73FB7B18461437BD465DF8047B7047A0A000407C
:400CC00080B485B000AF78600123FB737B681B781A011B4B13441A467B685B6843F4000343F0080313607B681B781A01144B13441B68144A1A407B685B6823F4000323F0DE
:400D000008039A4215D17B681B781A010C4B134404337A6892681A607B681B781A01084B134404331A687B689B689A4201D10023FB73FB7B18461437BD465DF8047B704754
:400D400020A00040F7007F0080B500AF034B02225A70FFF7D5FDFFF769FD80BD00A0004080B582B000AF0123BB801D4B10225A700023FB712EE01B4B1B889AB2BB8813403B
:400D80009BB2002B20D0FB795A01174B13441B78DBB203F02003002B16D0BB8803F003039BB2002B0CD0FB79002B02D0012B03D005E000F08FF802E000F09CF800BF03E098
:400DC000FB79184600F02AF8BB885B00BB80FB790133FB71FB790F2BCDD90837BD4680BD00A0004008A00040A0A0004080B500AF094B5B78DBB203F00203002B01D0FFF785
:400E0000A3FF054B5B78DBB203F01003002B01D0FFF7A6FF80BD00BF00A00040F0B58BB006AF0346FB71FB795A01294B13441B78DBB203F00103002B47D0FB795A01244B6C
:400E400013449B78DBB203F010031B11002B07D0FB795A011E4B134404331B68DB0806E0FB795A011A4B134404331B685B0DFB60FB795A01164B1344FA6804924FF0000C63
:400E8000D3F800C04FF0000ED3F804E000269E680025DD686C461033186859689A68DB680FC46046714632462B46FFF72DF9FB795A01074B1344FA795101054A0A44127801
:400EC000D2B242F00102D2B21A701437BD46F0BDA0A0004080B400AF054A054B1B78DBB243F00103DBB21370BD465DF8047B7047A0A0004080B400AF054A054B1B78DBB217
:400F000043F00103DBB21370BD465DF8047B7047C0A0004080B483B000AF0346FB7101BE0C37BD465DF8047B704700BF80B582B000AF786008E00C4B1B68184600F0A0F88C
:400F40007B68A3F500437B607B68B3F5004FF2D8064B1B687A6802FB03F3184600F090F80837BD4680BD00BF1881FF1F1081FF1F80B584B000AF03463960FB710F4B1B68CE
:400F8000FB60FB791F2B02D90020FFF7C3FFFB7903F01F0310339B00FA6813441B68BB60FB7903F01F0310339B00FA6813443A681A60BB6818461037BD4680BD08ED00E08E
:400FC00080B582B000AF03460A46FB711346BB71BB79072B02D90020FFF79CFFFB791F2B02D90020FFF796FFFB7903F01F0303F1604303F56443BA795201D2B21A70083789
:40100000BD4680BD80B485B000AF0346FB710B4B1B78DBB223F00803FB730849FB79DB00DBB203F00803DAB2FB7B1343DBB20B701437BD465DF8047B704700BFC05100402D
:4010400080B485B000AF0346FB710B4B1B78DBB223F00403FB730849FB799B00DBB203F00403DAB2FB7B1343DBB20B701437BD465DF8047B704700BFC05100400000000075
:401080000230800803D000BF01380046FCD17047EFF3108072B6704780F31088704700BF014B1868704700BF7C81FF1F0E4B70B51E460E4C0025E41AA410A54204D056F896
:4010C000253098470135F8E700F0F6F8084B094C1E46E41AA4100025A54204D056F8253098470135F8E770BDC4120000C4120000C4120000CC12000010B5431E0A449142C0
:4011000004D011F8014B03F8014FF8E710BD03460244934202D003F8011BFAE77047000000000000005100401000305100404000F0510040100000000140001000140140D1
:40114000000800400140000A004C01400002005001402000000000000800880000000000010000000800880000000000020000000800880000000000030000000800880056
:40118000000000000400000008008800000000000500000008008800000000000600000008008800000000000700000008008800000000000000000028000000F9FF1F009A
:4011C000000020000100000028000000F9FF1F000000400002000000A8008000FFFFFFFF000000000300000000000000000000000000000004000000000000000000000022
:401200000000000005000000000000000000000000000000060000000000000000000000000000000700000000000000000000000000000008000000000000000000000094
:4012400000000000090000000000000000000000000000000A0000000000000000000000000000000B0000000000000000000000000000000C000000000000000000000044
:40128000000000000D0000000000000000000000000000000E0000000000000000000000000000000F00000000000000000000000000000043000000F8B500BFF8BC08BCDD
:4012C0009E4670474D00000011020000F8B500BFF8BC08BC9E46704729000000F01200000881FF1F7800000028000000000000000000000000366E01C05D00001800000028
:401300000000E02E0000000000000000000000000000000000000000000000000000000000000000B4120000000000000000000000000000000000000000000000000000D9
:401340000000000000000000000000000000000000000000000000000000000000000000000000001C81FF1F000000000000000000000000000000000000000000000000B2
:40138000000000000000000000000000000000000000000000000000000000000000000000000000000000000000000000000000000000000000000000000000000000002D
:4013C00000000000000000000000000000000000000000000000000000000000000000000000000000000000000000000000000000000000000000000000000000000000ED
:4014000000000000000000000000000000000000000000000000000000000000000000000000000000000000000000000000000000000000000000000000000000000000AC
:40144000000000000000000000000000000000000000000000000000000000000000000000000000000000000000000000000000000000000000000000000000000000006C
:020000040003F7
:0200000480007A
:4000000001520040044C0140064D014008400C105D02C201D6011902781098109D02C608DE020000000C0C0000000000804B4B0040000000000202000000000000000000A1
:400040000000000000000000000000000000000000000000000000000000000000000000000000000000000000000000000000000000000000000000000000000000000080
:400080000000000000000000000000000000000000000000000000000000000000000000000000000000000000000000000000000000000000000000000000000000000040
:4000C0000000000000000000000000000000000000000000000000000000000000000000000000000000000000000000000000000000000000000000000000000000000000
:4001000000000000000000000000000000000000000000000000000000000000000000000000000000000000000000000000000000000000000000000000000000000000BF
:0200000490006A
:0400000000004005B7
:0200000490105A
:04000000BC90ACAF55
:0200000490303A
:02000000B8A1A5
:0200000490402A
:4000000000000000000000000000000000000000000000000000000000000000000000000000000000000000000000000000000000000000000000000000000000000000C0
:400040000000000000000000000000000000000000000000000000000000000000000000000000000000000000000000000000000000000000000000000000000000000080
:400080000000000000000000000000000000000000000000000000000000000000000000000000000000000000000000000000000000000000000000000000000000000040
:4000C0000000000000000000000000000000000000000000000000000000000000000000000000000000000000000000000000000000000000000000000000000000000000
:0200000490501A
:0C00000000012E16106900012E1CC90A18
:00000001FF